:020000040000FA
:100000000A128A111228FF3FFE00030EF3000408B3
:10001000F4000A08F500831203137F08F6000A12A1
:100020008A11572E0A168A15F32E83160313AE0073
:10003000A030A3002308AD00402E3F08253A031945
:10004000222823282A283F080A168A15B2260A12CF
:100050008A11402E83160313AF01B0013428562EA7
:1000600030154628402E46280130AE07FF302E07B7
:1000700084000A168A1100200A128A11BF00003A71
:100080000319562E663A03193028402E00302F05EA
:10009000A30007303005A4002408230403195128C5
:1000A00052282C2E0630B1000030B2002D088400FA
:1000B00083130008BC00840A0008BD00840A0008FD
:1000C000BE000330A3002308AD073C0883120313CE
:1000D000A000831603133D0883120313A1008316A7
:1000E00003133E0883120313A2000030A300003064
:1000F000A4000030A5000A168A11FC200A128A11F9
:10010000031883288428B228831603133C0883121B
:100110000313A000831603133D0883120313A100E9
:10012000831603133E0883120313A2000A128A15D2
:1001300005200A128A118312031320088316031361
:10014000BC0083120313210883160313BD0083121E
:100150000313220883160313BE000330AF040030DC
:10016000B004B22883160313BA01BB013E083D0454
:100170003C040319BC28BD28E729BC308400831344
:100180000008A300840A0008A400840A0008A5004F
:10019000840A0008A6000F300310A60CA50CA40CBE
:1001A000A30CFF3E031DCC28FF302305A700003021
:1001B0002405A8002708823EBA0028080318013E3B
:1001C000FF3EBB00FF30BA070318BB0AFF30BB0776
:1001D000033083120313A0000030A1008316031321
:1001E0003B0883120313A301A307831603133A08E2
:1001F00083120313A201A2070A168A150E270A12F8
:100200008A1183120313210883160313BB01BB0752
:1002100083120313200883160313BA01BA070A30A6
:1002200083120313A7000030A800831603133B08B2
:1002300083120313AA01AA07831603133A08831231
:100240000313A901A9070A168A11DA210A128A11D1
:1002500083120313280883160313BB01BB07831201
:100260000313270883160313BA01BA07BB1F3929E2
:100270003A294129FF30BA070318BB0AFF30BB07F0
:1002800041293A03FF3A0A128A1529250A128A11CE
:1002900083120313520883160313B7008312031348
:1002A000530883160313B8008312031354088316EC
:1002B0000313B9003C0883120313C200831603130F
:1002C0003D0883120313C300831603133E088312F1
:1002D0000313C40083160313370883120313C500E6
:1002E00083160313380883120313C60083160313FF
:1002F000390883120313C7000A168A1177240A12D9
:100300008A1183120313420883160313B700831262
:100310000313430883160313B8008312031344081E
:1003200083160313B900370883120313A000831642
:100330000313380883120313A1008316031339082B
:1003400083120313A2000030A3008030A4003F30CA
:10035000A5000A168A11FC200A128A110318B12975
:10036000B229BB29FF3083160313BA070318BB0A4F
:10037000FF30BB07E72983160313370883120313E3
:10038000A00083160313380883120313A1008316F9
:100390000313390883120313A2000030A300203096
:1003A000A4004130A5000A168A11FC200A128A1105
:1003B000031CDB29DC29E729013083160313BA0764
:1003C0000318BB0A0030BB07E729E729E729831692
:1003D00003133208803AFF0080307F02031DF229A8
:1003E0000D3031020318F529F629302A831603133C
:1003F00031080A128A15B9200A128A1183120313CE
:100400005F08D2006008D3006108D400831603138C
:100410003C0883120313D500831603133D0883128F
:100420000313D600831603133E0883120313D70069
:100430000A168A1165250A128A11831203135208BB
:1004400083160313BC00831203135308831603138C
:10045000BD0083120313540883160313BE00302A11
:10046000831603133B08803AFF0080307F02031D90
:100470003B2A0A303A0203183E2A3F2A772A83167B
:1004800003133E083D043C040319472A482A522B13
:100490003C0883120313B400831603133D08831230
:1004A0000313B500831603133E0883120313B6002B
:1004B0000A128A1513200A128A11831203133708AD
:1004C000360435043404031D662A672A522B83162A
:1004D00003133B08803AFF0080307F02031D722A1D
:1004E00002303A02031C752A762A522B772A831689
:1004F0000313370883120313A0008316031338086D
:1005000083120313A1008316031339088312031304
:10051000A2007030A3008930A4004030A5000A1664
:100520008A11FC200A128A110318972A982AA12AF4
:10053000F73083160313BA070318BB0AFF30BB0753
:10054000AA2AF83083160313BA070318BB0AFF3030
:10055000BB07AA2A3A080A128A1529250A128A1103
:1005600083120313520883160313B7008312031375
:10057000530883160313B800831203135408831619
:100580000313B900032B3C0883120313A000831646
:1005900003133D0883120313A100831603133E08BF
:1005A00083120313A2008316031337088312031365
:1005B000A30083160313380883120313A4008316C1
:1005C0000313390883120313A5000A168A11AB26F8
:1005D0000A128A1183120313230883160313AC0033
:1005E00083120313220883160313AB008312031331
:1005F000210883160313AA0083120313200883160D
:100600000313A900432B3C0883120313A000831695
:1006100003133D0883120313A100831603133E083E
:1006200083120313A20083160313370883120313E4
:10063000A30083160313380883120313A400831640
:100640000313390883120313A5000A168A11952390
:100650000A128A1183120313230883160313AC00B2
:1006600083120313220883160313AB0083120313B0
:10067000210883160313AA0083120313200883168C
:100680000313A900432B2C08B6002B08B5002A0839
:10069000B4002908B3000030BC000030BD000030B9
:1006A000BE00D02B831603133C0883120313B4003F
:1006B000831603133D0883120313B5008316031337
:1006C0003E0883120313B6000A128A1513200A1279
:1006D0008A1183120313370883160313B60083129B
:1006E0000313360883160313B5008312031335086A
:1006F00083160313B4008312031334088316031301
:10070000B300360883120313AB00831603133508B6
:1007100083120313AA0083160313340883120313EE
:10072000A90083160313330883120313A8000A12C7
:100730008A11C0270A128A11831203132808DF00C6
:100740002908E0002A08E100831603133C088312FD
:100750000313E200831603133D0883120313E3001F
:10076000831603133E0883120313E4000A168A114A
:10077000DD200A128A11831203135F088316031304
:10078000BC0083120313600883160313BD00831299
:100790000313610883160313BE00BA01BB01D02BFB
:1007A000BF010314BF0D3F080A3A031DD82BD92BF4
:1007B000DB2B1E2C1E2C3F08A30001300310A30DC1
:1007C000FF3E031DDE2B0310230D013E84000A169D
:1007D0008A1100200A128A11A4000A168A11002028
:1007E0000A128A11A5000A168A1100200A128A111B
:1007F000A6000A168A1100200A128A11A7002708EB
:100800003602031D0D2C26083502031D0D2C25086C
:100810003402031D0D2C240833020318102C112C54
:10082000132C1E2C1E2C0130A3002308BF073F08E9
:100830000A3A031D1C2C1D2CDB2B1E2C03302F050C
:10084000A30000303005A400240823040319292C38
:100850002A2C9A2C2D300A168A15B2260A128A11D1
:100860009A2C9A2C003083120313B1000030B00090
:100870000030AF000A30AE00831603133F08A30018
:1008800001300310A30DFF3E031D412C0310230D67
:10089000013E84000A168A1100200A128A1183126E
:1008A0000313A0000A168A1100200A128A11A1005F
:1008B0000A168A1100200A128A11A2000A168A1149
:1008C00000200A128A11A30083160313360883122C
:1008D0000313A70083160313350883120313A6001E
:1008E00083160313340883120313A500831603131E
:1008F000330883120313A4000A168A116A210A120C
:100900008A11831203132308B5002208B4002108BA
:10091000B3002008B2000A168A153A270A128A1173
:10092000831203132E08303E0A168A15B2260A12C5
:100930008A119A2CFF3083160313A3002308BF07E4
:100940003F08FF3A031DA52CA62C322CB72CB72C40
:1009500030300A168A15B2260A128A11FF30831621
:100960000313BA070318BB0AFF30BB07B72C3B08B9
:10097000803AFF0080307F02031DC02C01303A0214
:100980000318C32CC42CA82CC52C831603133208BF
:10099000803AFF0080307F02031DD02C09303102E5
:1009A000031CD32CD42CDB2C083083160313A30098
:1009B0002308BF00E12C831603133108A30023088A
:1009C000BF003F08A300A401A31BA4032308B10296
:1009D0002408031CB203B2023F08031DF02CF72CBD
:1009E0002E300A168A15B2260A128A11F72C83169F
:1009F00003133F080A128A1529250A128A11831245
:100A000003135208C5005308C6005408C7008316D4
:100A100003133C0883120313C200831603133D081B
:100A200083120313C300831603133E0883120313B8
:100A3000C4000A168A1177240A128A11831203133A
:100A40004208B4004308B5004408B6000A128A15EB
:100A500013200A128A118312031337088316031313
:100A6000B60083120313360883160313B5008312EE
:100A70000313350883160313B400831203133408D9
:100A800083160313B300092E003083120313B10041
:100A90000030B0000030AF000A30AE008316031300
:100AA0003F08A30001300310A30DFF3E031D532D8B
:100AB0000310230D013E84000A168A1100200A1239
:100AC0008A1183120313A0000A168A1100200A1249
:100AD0008A11A1000A168A1100200A128A11A200A6
:100AE0000A168A1100200A128A11A3008316031322
:100AF000360883120313A7008316031335088312E5
:100B00000313A60083160313340883120313A500EE
:100B100083160313330883120313A4000A168A11E1
:100B20006A210A128A11831203132308B5002208CE
:100B3000B4002108B3002008B2000A168A153A272B
:100B40000A128A11831203132E08303E0A168A15E0
:100B5000B2260A128A11831603133F08A30001303C
:100B60000310A30DFF3E031DB02D0310230D013E06
:100B700084000A168A1100200A128A1183120313B4
:100B8000AE000A168A1100200A128A11AF000A1656
:100B90008A1100200A128A11B0000A168A11002058
:100BA0000A128A11B1008316031336088312031345
:100BB000B50083160313350883120313B40083169C
:100BC0000313340883120313B3008316031333088B
:100BD00083120313B2000A168A153A270A128A11E1
:100BE00083120313310883160313B6008312031311
:100BF000300883160313B500831203132F088316DE
:100C00000313B400831203132E0883160313B300D7
:100C1000092EFF30A3002308BF073F08FF3A031D3A
:100C2000122E132E442D242E242E30300A168A150F
:100C3000B2260A128A11FF3083160313B107031874
:100C4000B20AFF30B207242E32083104031D292EC8
:100C50002A2E152E402E402E03302F05A3000030E3
:100C60003005A400240823040319372E382E402E03
:100C70002D300A168A15B2260A128A11402E402EED
:100C8000013083160313AE07FF302E0784000A16C7
:100C90008A1100200A128A11A3002308BF00BF088E
:100CA000031D532E542E1D28562E562E08000B1CA5
:100CB0005A2E5B2EFF2E061A5E2E602E0130612EFC
:100CC0000030F0007718652E672E0130682E003056
:100CD000700603196C2E6D2E842E061E702E712E3A
:100CE000772E771483160313C601C701792E771068
:100CF000861577187C2E802E831203130615832EFB
:100D0000831203130611842E861A872E892E013032
:100D10008A2E0030F000F7188E2E902E0130912E82
:100D2000003070060319952E962EA82E861E992E39
:100D30009A2E9C2EF7149D2EF710F718A02EA42E95
:100D4000831203138615A72E831203138611A82E70
:100D5000061BAB2EAD2E0130AE2E0030F000771901
:100D6000B22EB42E0130B52E003070060319B92E04
:100D7000BA2ECC2E061FBD2EBE2EC02E7715C12E2C
:100D800077117719C42EC82E831203130516CB2EA4
:100D9000831203130512CC2E861BCF2ED12E0130C9
:100DA000D22E0030F000F719D62ED82E0130D92ED1
:100DB000003070060319DD2EDE2EF02E861FE12E88
:100DC000E22EE42EF715E52EF711F719E82EEC2E9A
:100DD000831203138516EF2E831203138512F02E50
:100DE0000830F2009D30F1000B30F000F00BF62ED1
:100DF000F10BF62EF20BF62EFD2E0B10FF2E0B1D17
:100E0000022F032F5F2F0130F000700883160313A9
:100E1000C8070130F0007008FC077C08993A031DF0
:100E2000122F132F2A2F831203139F111F129F12A9
:100E30000730F1007D30F000F00B1C2FF10B1C2F60
:100E4000831203131F151030F706FC010130FA005E
:100E50000030FB007C084B3A031D2F2F302F422F10
:100E600083129F151F129F120730F1007D30F00092
:100E7000F00B382FF10B382F831203131F15FA01D3
:100E8000FB01422F7C08E13A031D472F482F5E2FBC
:100E900083129F111F169F120730F1007D30F00062
:100EA000F00B502FF10B502F831203131F1502303C
:100EB000FA000030FB005E2F5E2F86150B118312A7
:100EC00003130C1F642F652FB52F831603131E0801
:100ED000F00006300310F00CFF3E031D6A2F831252
:100EE00003131E08F100F2010230FF000310F10DA0
:100EF000F20DFF0B762F70087107F8000030031811
:100F000001307207F90001307A067B04031D892F36
:100F10008A2F932F790883160313CE01CE07780802
:100F2000CD01CD07932F7B087A04031D982F992FAD
:100F3000A22F790883160313CC01CC077808CB01C4
:100F4000CB07A22F02307A067B04031DA82FA92FFE
:100F5000B22F790883160313CA01CA077808C9019A
:100F6000C907B22F83120C13B52F7608FF0075083E
:100F70008A0074088400730E8300FE0E7E0E090042
:100F80008E3083120313AC002C08AD00D52F013036
:100F90000310AB0CAA0CA90CA80CFF3E031DC82F14
:100FA0000130AC002C08AD07D52FFF302B05031DF9
:100FB000DA2FDB2FC72FDC2F2808A0002908A1007B
:100FC0002A08A2002D08AC002C08A300A4010A16D0
:100FD0008A1150220A128A11831203132008A800D2
:100FE0002108A9002208AA00F52F0800FF3FFF3FB3
:100FF000FF3FFF3FFF3FFF3FFF3FFF3FFF3FFF3F01
:10100000FF3FFF3FFF3FFF3FFF3F831203132208D5
:101010002104200403190D280E2811288030A2066F
:10102000112812280800831203133408B800350869
:10103000B9003608BA000310390D3A0DBB003B0861
:10104000C100C108031D2528262830280030B7001C
:101050000030B6000030B5000030B400B828B82821
:101060003408B8003508B9003608BA001730031044
:10107000BA0CB90CB80CFF3E031D37283808BB006A
:101080003B08BC00B517FF30B405FF30B505003094
:10109000B6053408BD003508BE003608BF00C001E3
:1010A0008E30C102C11F552856287B284108803A3E
:1010B0008F3E03185C285D2868280030B700003098
:1010C000B6000030B5000030B400B828B828682851
:1010D00001300310C00CBF0CBE0CBD0CFF3E031D45
:1010E00069280130B8003808C107031D782879281D
:1010F00068289F289F2818304102031C80288128D7
:1011000098280030B7000030B6000030B50000303D
:10111000B400B828B82898280130B8000310BD0DD5
:10112000BE0DBF0DC00DB80B8E280130C10298282E
:10113000C108031D9C289D288C289F289F283C08B7
:10114000031DA328AF28BD09BE09BF09C009BD0AF8
:101150000319BE0A0319BF0A0319C00AAF284008C1
:10116000B7003F08B6003E08B5003D08B400B828F7
:10117000080083120313EE006E306E02031CC128B8
:10118000C228A7290330E2006208B0000A30A70095
:101190000030A8006E08E300E4016308A2006408C0
:1011A000A3006430A0000030A1000A168A15982719
:1011B0000A128A15831203132108AA01AA0720081C
:1011C000A901A9070A168A11DA210A128A158312BF
:1011D00003132708093E0A168A15BE260A128A1525
:1011E000293E84000A168A1100200A128A158312E9
:1011F0000313C2000A168A1100200A128A15C300BE
:101200000A168A1100200A128A15C4000330E5006C
:101210006508B0006430A7000030A8006E08E60042
:10122000E7016608A9006708AA000A168A11DA21F0
:101230000A128A15831203132708123E0A168A150A
:10124000BE260A128A15293E84000A168A11002039
:101250000A128A1583120313C5000A168A11002088
:101260000A128A15C6000A168A1100200A128A1567
:10127000C7000A168A1177240A128A1583120313EB
:101280004208EB004308EC004408ED000330E200A4
:101290006208B0006E08E300E4016308A20064087D
:1012A000A3000A30A0000030A1000A168A15982772
:1012B0000A128A158312031320080A168A15BE26FD
:1012C0000A128A15293E84000A168A1100200A1281
:1012D0008A1583120313C2000A168A1100200A120B
:1012E0008A15C3000A168A1100200A128A15C40042
:1012F0006B08C5006C08C6006D08C7000A168A1185
:1013000077240A128A15831203134208E80043085F
:10131000E9004408EA000030C2000030C3003F305A
:10132000C4006808C5006908C6006A08C7000A1634
:101330008A1177240A128A15831203134208DF00E8
:101340004308E0004408E1006F2A6F2A3B2A0B3073
:101350006E02031CAC29AD293B2A0330E20062086F
:10136000B0006E08E300E4016308A2006408A30073
:101370000A30A0000030A1000A168A1598270A1228
:101380008A158312031320080A168A15BE260A122C
:101390008A15293E84000A168A1100200A128A152D
:1013A00083120313C2000A168A1100200A128A153A
:1013B000C3000A168A1100200A128A15C4000330DD
:1013C000E5006508B0000A30A7000030A8006E08EC
:1013D000E600E7016608A9006708AA000A168A1154
:1013E000DA210A128A15831203132708093E0A1606
:1013F0008A15BE260A128A15293E84000A168A1109
:1014000000200A128A1583120313C5000A168A11D6
:1014100000200A128A15C6000A168A1100200A1234
:101420008A15C7000A168A1177240A128A158312B0
:1014300003134208EB004308EC004408ED000030C1
:10144000C2000030C3003F30C4006B08C5006C0808
:10145000C6006D08C7000A168A1177240A128A1579
:10146000831203134208DF004308E0004408E10050
:101470006F2A6F2A3B2A0030C2000030C3003F3081
:10148000C4000330E2006208B0006E080A168A1534
:10149000BE260A128A15293E84000A168A110020E7
:1014A0000A128A1583120313C5000A168A11002036
:1014B0000A128A15C6000A168A1100200A128A1515
:1014C000C7000A168A1177240A128A158312031399
:1014D0004208DF004308E0004408E1006F2A0800EA
:1014E0008316031305148514851605128512FF3023
:1014F00086000610861006118611061701178B103C
:101500000B168112011281110115811401140B11A6
:101510008B160B108B150B178B178717071781303E
:10152000990090308312031398002430831603131C
:101530009800831203139F17831603131F17831238
:1015400003131F139F111F129F12831603139F1360
:101550009F111F159F101F10831203130C13831666
:1015600003130C17831203131F141F150611861182
:1015700005128512BB2A00308312C200C830C30096
:101580004230C400C030AC007F30AD004430AE000B
:10159000831603134E0883120313A101A1078316B8
:1015A00003134D0883120313A001A0070530A20006
:1015B0000030A3000A168A150E270A128A15831214
:1015C00003132108A901A9072008A801A8070A16E2
:1015D0008A15D8260A128A15831203132808AF0029
:1015E0002908B0002A08B1000A168A11CD220A1271
:1015F0008A15831203132C08C5002D08C6002E0877
:10160000C7000A168A1177240A128A158312031357
:10161000420883160313CF00831203134308831673
:101620000313D00083120313440883160313D1005D
:10163000003083120313A000A030A1004130A200AB
:10164000831603134F0883120313A3008316031397
:10165000500883120313A400831603135108831246
:101660000313A5000A168A11FC200A128A15031812
:101670003A2B3B2B3F2B831203138614432B8312ED
:1016800003138610432BC030AC007F30AD004430D4
:10169000AE00831603134C0883120313A101A107A4
:1016A000831603134B0883120313A001A007053010
:1016B000A2000030A3000A168A150E270A128A1506
:1016C000831203132108A901A9072008A801A8076C
:1016D0000A168A15D8260A128A15831203132808B7
:1016E000AF002908B0002A08B1000A168A11CD22DD
:1016F0000A128A15831203132C0883160313C300DE
:10170000831203132D0883160313C40083120313DB
:101710002E0883160313C5004308A0004408A10047
:101720004508A200B8300A128A1115200A128A153B
:1017300083160313430883120313A00083160313B5
:10174000440883120313A100831603134508831270
:101750000313A2009A30A3009930A4003F30A500E3
:101760000A168A11FC200A128A150318B82BB92B05
:10177000BD2B831203130614712C83160313430825
:1017800083120313A0008316031344088312031368
:10179000A10083160313450883120313A2009A3095
:1017A000A3009930A4003F30A5000A168A11FC203E
:1017B0000A128A15031CDD2BDE2B032C8316031360
:1017C000430883120313A0008316031344088312F3
:1017D0000313A10083160313450883120313A20009
:1017E0009A30A3001930A4004030A5000A168A11CF
:1017F000FC200A128A150318FE2BFF2B032C8312E0
:1018000003130614712C8316031343088312031366
:10181000A00083160313440883120313A100831648
:101820000313450883120313A2009A30A300193052
:10183000A4004030A5000A168A11FC200A128A155D
:10184000031C232C242C492C8316031343088312D6
:101850000313A00083160313440883120313A1008B
:1018600083160313450883120313A2009A30A300C2
:101870009930A4004030A5000A168A11FC200A12F3
:101880008A150318442C452C492C83120313061087
:10189000712C83160313430883120313A0008316CD
:1018A0000313440883120313A1008316031345088E
:1018B00083120313A2009A30A3009930A400403091
:1018C000A5000A168A11FC200A128A15031C692C2D
:1018D0006A2C712C831203130610712C712C712C3D
:1018E000712CC03083120313AC007F30AD00443044
:1018F000AE00831603134A0883120313A101A10744
:1019000083160313490883120313A001A0070530AF
:10191000A2000030A3000A168A150E270A128A15A3
:10192000831203132108A901A9072008A801A80709
:101930000A168A15D8260A128A1583120313280854
:10194000AF002908B0002A08B1000A168A11CD227A
:101950000A128A15831203132C0883160313C0007E
:10196000831203132D0883160313C100831203137C
:101970002E0883160313C200400883120313A0002D
:1019800083160313410883120313A1008316031364
:10199000420883120313A200CD30A3001C30A40020
:1019A0004030A5000A168A11FC200A128A15031C71
:1019B000DA2CDB2CE22C98300A128A1115200A123C
:1019C0008A15E92C77300A128A1115200A128A1515
:1019D000E92C003083120313A0002030A100423014
:1019E000A200831603134F0883120313A300831668
:1019F0000313500883120313A40083160313510822
:101A000083120313A5000A168A11FC200A128A15F4
:101A100003180B2D0C2D0F2D8312031305128312A7
:101A20000313051A142D152D182D20308506182D99
:101A3000061A1B2D1C2DBB2A013083160313C6006A
:101A40000030C700C801BB2ABB2ABB2A0A128A1170
:101A5000122883120313DA00DA1F2F2D302D992E4E
:101A6000DA09DA0A5A08803A123E031C382D392D59
:101A7000FF2D0330D5005508B0000A30A700003014
:101A8000A8005A08A200A301A21BA3036430A0006F
:101A90000030A1000A168A1598270A128A158312A7
:101AA00003132108AA01AA072008A901A9070A16F9
:101AB0008A11DA210A128A15831203132708093EB4
:101AC0000A168A15BE260A128A15293E84000A16AD
:101AD0008A1100200A128A1583120313C2000A1603
:101AE0008A1100200A128A15C3000A168A110020E2
:101AF0000A128A15C4000330D6005608B0006430BC
:101B0000A7000030A8005A08A900AA01A91BAA032F
:101B10000A168A11DA210A128A158312031327087A
:101B2000123E0A168A15BE260A128A15293E84001C
:101B30000A168A1100200A128A1583120313C5009F
:101B40000A168A1100200A128A15C6000A168A117E
:101B500000200A128A15C7000A168A1177240A1271
:101B60008A15831203134208D7004308D80044089B
:101B7000D9000330D5005508B0005A08A200A301CF
:101B8000A21BA3030A30A0000030A1000A168A1588
:101B900098270A128A158312031320080A168A1539
:101BA000BE260A128A15293E84000A168A110020D0
:101BB0000A128A1583120313C2000A168A11002022
:101BC0000A128A15C3000A168A1100200A128A1501
:101BD000C4005708C5005808C6005908C7000A16AF
:101BE0008A1177240A128A15831203134208D2003D
:101BF0004308D3004408D400FF2FFF2F772E5A0844
:101C0000803A753E031C052E062E772E0330D50034
:101C10005508B0005A08A200A301A21BA3030A3072
:101C2000A0000030A1000A168A1598270A128A150A
:101C30008312031320080A168A15BE260A128A1573
:101C4000293E84000A168A1100200A128A1583127E
:101C50000313C2000A168A1100200A128A15C30053
:101C60000A168A1100200A128A15C4000330D60011
:101C70005608B0000A30A7000030A8005A08A90092
:101C8000AA01A91BAA030A168A11DA210A128A15C7
:101C9000831203132708093E0A168A15BE260A1264
:101CA0008A15293E84000A168A1100200A128A1514
:101CB00083120313C5000A168A1100200A128A151E
:101CC000C6000A168A1100200A128A15C7000A16D1
:101CD0008A1177240A128A15831203134208D2004C
:101CE0004308D3004408D400FF2FFF2F772E033082
:101CF000D5005508B0005A080A168A15BE260A12E1
:101D00008A15293E84000A168A1100200A128A15B3
:101D100083120313D2000A168A1100200A128A15B0
:101D2000D3000A168A1100200A128A15D400FF2F48
:101D3000FF2F5A08803A123E031C9F2EA02E662FBA
:101D40000330D5005508B0000A30A7000030A800C5
:101D50005A08A200A301A21BA3036430A000003014
:101D6000A1000A168A1598270A128A1583120313EE
:101D70002108AA01AA072008A901A9070A168A11A1
:101D8000DA210A128A15831203132708093E0A165C
:101D90008A15BE260A128A15503E84000A168A1138
:101DA00000200A128A1583120313C2000A168A1130
:101DB00000200A128A15C3000A168A1100200A128E
:101DC0008A15C4000330D6005608B0006430A7005E
:101DD0000030A8005A08A900AA01A91BAA030A16E4
:101DE0008A11DA210A128A15831203132708123E78
:101DF0000A168A15BE260A128A15503E84000A1653
:101E00008A1100200A128A1583120313C5000A16CC
:101E10008A1100200A128A15C6000A168A110020AB
:101E20000A128A15C7000A168A1177240A128A151F
:101E3000831203134208D7004308D8004408D9008E
:101E40000330D5005508B0005A08A200A301A21B18
:101E5000A3030A30A0000030A1000A168A159827B3
:101E60000A128A158312031320080A168A15BE2641
:101E70000A128A15503E84000A168A1100200A129E
:101E80008A1583120313C2000A168A1100200A124F
:101E90008A15C3000A168A1100200A128A15C40086
:101EA0005708C5005808C6005908C7000A168A1105
:101EB00077240A128A15831203134208D2004308BA
:101EC000D3004408D400FF2FFF2FDE2F5A08803A9A
:101ED000753E031C6C2F6D2FDE2F0330D500550887
:101EE000B0005A08A200A301A21BA3030A30A0005D
:101EF0000030A1000A168A1598270A128A15831243
:101F0000031320080A168A15BE260A128A15503EA7
:101F100084000A168A1100200A128A1583120313FC
:101F2000C2000A168A1100200A128A15C3000A1676
:101F30008A1100200A128A15C4000330D600560800
:101F4000B0000A30A7000030A8005A08A900AA0172
:101F5000A91BAA030A168A11DA210A128A1583120A
:101F600003132708093E0A168A15BE260A128A1587
:101F7000503E84000A168A1100200A128A15831224
:101F80000313C5000A168A1100200A128A15C6001A
:101F90000A168A1100200A128A15C7000A168A1129
:101FA00077240A128A15831203134208D2004308C9
:101FB000D3004408D400FF2FFF2FDE2F0330D500BD
:101FC0005508B0005A080A168A15BE260A128A1544
:101FD000503E84000A168A1100200A128A158312C4
:101FE0000313D2000A168A1100200A128A15D300A0
:101FF0000A168A1100200A128A15D400FF2F080041
:1020000010308A000408840A820700340134003446
:10201000003400340A3400340034003464340034B2
:1020200000340034E83403340034003410342734EE
:1020300000340034A0348634013400344034423457
:102040000F34003480349634983400340034E13452
:10205000F53405340034CA349A343B3400348034C7
:102060003F34CD34CC343D34D73423343C34123473
:1020700083343A34B734D1343834C634273437341F
:10208000383486343534C034D6343334CC342B34FD
:102090003234703489343034E734DB342E34E53470
:1020A0003C341E344234A2340D34003480343F3486
:1020B0000034203441340034C834423400347A349B
:1020C000443440341C3446345034C334473424340C
:1020D00074344934973418344B34BC34BE344C34E3
:1020E0006B346E344E340334153450347934AD349B
:1020F0006034F334493471340A3441342034623466
:102100006134743465347234693461342034653434
:10211000733474346134203461346234613469342A
:1021200078346F3420346434613420346D34653451
:10213000743461346434653400340A3441342034F6
:1021400062346134743465347234693461342034F7
:1021500065347334743461342034613463346934E5
:102160006D34613420346434613420346D3465342A
:10217000743461346434653400340A3441342034B6
:102180006C3475346D3469346E346F34733469343F
:1021900064346134643465342034653468343A34EA
:1021A0002034253466340034FF3FFF3FFF3FFF3FBC
:1021B000FF3FFF3FFF3FFF3FFF3F8030831203138E
:1021C000E1066208D2006308D3006408D4005F0807
:1021D000D5006008D6006108D7000A168A11652567
:1021E0000A168A11831203135208DF005308E00015
:1021F0005408E100FB28080083120313A21F0129E1
:10220000022928290030A6000030A7008030A8004D
:102210002009A9002109AA002209AB00A90A031973
:10222000AA0A0319AB0A2908A6072A0803182A0FC5
:102230001A291B29A7072B0803182B0F202921294E
:10224000A8072608A0002708A1002808A20028291E
:10225000A51F2B292C2952290030A6000030A700E9
:102260008030A8002309A9002409AA002509AB0091
:10227000A90A0319AA0A0319AB0A2908A6072A08FA
:1022800003182A0F44294529A7072B0803182B0FE9
:102290004A294B29A8072608A3002708A4002808D4
:1022A000A50052298030A2068030A506250822020A
:1022B000031D602924082102031D60292308200230
:1022C00003186329642966290310692903146929FD
:1022D00069290800003083120313AC000030AB0002
:1022E0000030AA000030A9002308220421042004A1
:1022F00003197B297C29D029AD010314AD0D8E294A
:102300000130A8000310A00DA10DA20DA30DA80B74
:1023100082290130A8002808AD078E29A31F912922
:1023200092298029942994290130A8000310A90D2D
:10233000AA0DAB0DAC0DA80B962923082702031D8F
:10234000AB2922082602031DAB2921082502031D03
:10235000AB2920082402031CAE29AF29BF2920087D
:10236000A4022108031C210FA5022208031C220F2E
:10237000A6022308031C230FA7022914BF2901303A
:102380000310A30CA20CA10CA00CFF3E031DC0293E
:102390000130AD02031DCD29CE299429D029D029A1
:1023A0002C08A3002B08A2002A08A1002908A000DD
:1023B000D929080083120313AD01A81FE029E129E0
:1023C000EA29A709A809A70A0319A80AAD01031455
:1023D000AD0DEA29AA1FED29EE29F829A909AA09B4
:1023E000A90A0319AA0A0130AB002B08AD06F82987
:1023F000AE01AF01280827040319FF29002A3E2A4D
:10240000AC010314AC0D102A01300310A70DA80D68
:10241000FF3E031D052A0130AB002B08AC07102A34
:10242000A81F132A142A042A162A162A0130031078
:10243000AE0DAF0DFF3E031D172A28082A02031D0B
:10244000232A27082902031C262A272A2F2A27089D
:10245000A9022808031CAA03AA022E142F2A01305D
:102460000310A80CA70CFF3E031D302A0130AC025C
:10247000031D3B2A3C2A162A3E2A3E2A2D08031D0C
:10248000422A482AAE09AF09AE0A0319AF0A482A00
:102490002F08A801A8072E08A701A7074F2A0800A0
:1024A000831203132308031D562A5E2A22082104DF
:1024B0002004031D5C2A5D2A742A5E2A0030A000D5
:1024C0000030A1000030A200CC2ACC2A742A0130AE
:1024D000A5002508A30701300310A20CA10CA00C35
:1024E000FF3E031D6C2A742AFE302205031D792A43
:1024F0007A2A672A922A922A0130A5002508A30782
:102500000130A007003003180130A1070030031884
:102510000130A20701300310A20CA10CA00CFF3E59
:10252000031D8B2AFF302205031D972A982A7C2A37
:10253000A52AA52A0130A30201300310A00DA10D88
:10254000A20DFF3E031D9D2AA52AA11FA82AA92A84
:102550009A2A2318AC2AAD2AB32AFF30A0057F306F
:10256000A105FF30A2050310A30C2308A500A601B6
:10257000A70110300310A50DA60DA70DFF3E031DEA
:10258000BA2A2508A0042608A1042708A2042408C2
:10259000031DCB2ACC2AA2170800831203132F088D
:1025A000B2003008B3003108B4000310330D340D0D
:1025B000B5003508BA00BA08031DDF2AE02AE82A68
:1025C0000030AC000030AD000030AE00942B942BF6
:1025D0002C08B2002D08B3002E08B4000310330DF0
:1025E000340DB5003508BB00BB08031DF82AF92AD5
:1025F000012B0030AC000030AD000030AE00942B59
:10260000942B0030B7000030B8000030B90089309A
:102610003B07B2003208BA022F08B2003008B300FC
:102620003108B40010300310B40CB30CB20CFF3EF0
:10263000031D132B3208B5003508BB002C08B2006F
:102640002D08B3002E08B40010300310B40CB30CE6
:10265000B20CFF3E031D252B3208B5003508BB0622
:102660008030B2003208BB05B017FF30AF05FF3035
:10267000B0050030B105AD17FF30AC05FF30AD053A
:102680000030AE051830B2003208B600472B0130DA
:102690000310B70DB80DB90DFF3E031D482B2E08D2
:1026A0003102031D592B2D083002031D592B2C0814
:1026B0002F02031C5C2B5D2B692B2C08AF022D080D
:1026C000031C2D0FB0022E08031C2E0AB102371472
:1026D000692B01300310AF0DB00DB10DFF3E031D8E
:1026E0006A2B0130B602031D762B772B472B782BF4
:1026F0003708A0003808A1003908A2003A08B20043
:102700003208A3003B08B3003308A4000A168A115C
:1027100050220A168A11831203132008AC002108E4
:10272000AD002208AE00942B08008312031320088A
:10273000A6002108A7002208A8000310270D280DD5
:10274000A9002908AF00AF08031DA72BA82BB22BA7
:102750000030A3000030A2000030A1000030A00033
:10276000762C762C2308A6002408A7002508A800AC
:102770000310270D280DA9002908AE00AE08031D7F
:10278000C22BC32BCD2B0030A3000030A2000030A1
:10279000A1000030A000762C762CA117FF30A005F8
:1027A000FF30A1050030A205A417FF30A305FF30BC
:1027B000A4050030A5050030AD000030AC000030AD
:1027C000AB000030AA007F30AF0298302E07A60081
:1027D0002608AF021830A6002608AE00EF2B013005
:1027E000A6000310AA0DAB0DAC0DAD0DA60BF12B81
:1027F00025082202031D022C24082102031D022C9D
:1028000023082002031C052C062C122C2308A002EE
:102810002408031C240FA1022508031C250AA20278
:102820002A14122C01300310A00DA10DA20DFF3EA1
:10283000031D132C0130AE02031D1F2C202CEF2B87
:10284000AF1F232C242C492C2F08803A973E0318C5
:102850002A2C2B2C362C0030A3000030A200003094
:10286000A1000030A000762C762C362C013003100D
:10287000AD0CAC0CAB0CAA0CFF3E031D372C013089
:10288000A6002608AF07031D462C472C362C6D2CBE
:102890006D2C18302F02031C4E2C4F2C662C003050
:1028A000A3000030A2000030A1000030A000762C70
:1028B000762C662C0130A6000310AA0DAB0DAC0DD2
:1028C000AD0DA60B5C2C0130AF02662CAF08031DCA
:1028D0006A2C6B2C5A2C6D2C6D2C2D08A3002C0807
:1028E000A2002B08A1002A08A000762C0800831261
:1028F00003134208C8004308C9004408CA00031073
:10290000490D4A0DCB004B08CC00CC08031D892C87
:102910008A2C922C0030C2000030C3000030C4006A
:10292000642D642D4508C8004608C9004708CA0040
:102930000310490D4A0DCB004B08D100D108031DEF
:10294000A22CA32CAB2C0030C2000030C3000030FE
:10295000C400642D642D51087B3EC8004808CC0794
:102960004208C8004308C9004408CA0010300310D8
:10297000CA0CC90CC80CFF3E031DB72C4808CB007D
:102980004B08D1004508C8004608C9004708CA00DE
:1029900010300310CA0CC90CC80CFF3E031DC92C13
:1029A0004808CB004B08D1068030C8004808D10544
:1029B000C317C617FF30C505FF30C6050030C70571
:1029C0000030CD000030CE000030CF000730C8000E
:1029D0004808D000EB2C421CEE2CEF2C002D4508B3
:1029E000CD07460803110318460A0319F82CCE0731
:1029F000470803110318470A0319FF2CCF07002DBE
:102A000001300310C40CC30CC20CFF3E031D012D8A
:102A100001300310C50DC60DC70DFF3E031D092D66
:102A20000130D002031D152D162DEB2C172D09306A
:102A3000C8004808D0001C2D421C1F2D202D312D10
:102A40004508CD07460803110318460A0319292D26
:102A5000CE07470803110318470A0319302DCF0783
:102A6000312D01300310C40CC30CC20CFF3E031DFA
:102A7000322D01300310CF0CCE0CCD0CFF3E031DC8
:102A80003A2D0130D002031D462D472D1C2D482D17
:102A90004D08A0004E08A1004F08A2004C08C80035
:102AA0004808A3005108C9004908A4000A168A1161
:102AB00050220A168A11831203132008C20021082B
:102AC000C3002208C400642D0800831203135208B7
:102AD000D8005308D9005408DA000310590D5A0DD4
:102AE000DB005B08DE005508D8005608D9005708FF
:102AF000DA000310590D5A0DDB005B08DD005E089B
:102B0000031D832D942D5D085E020318882D892DE9
:102B10009C2D5E03FF3A5D07D80019305802031C54
:102B2000922D932D9C2D942D5508D2005608D3003C
:102B30005708D400AA2EAA2E5D08031DA02DB02D83
:102B40005E085D020318A52DA62DB12D5D03FF3A89
:102B50005E07D80019305802031CAF2DB02DB12DDF
:102B6000AA2E0630D8005808DC00D41FB82DB92D85
:102B7000BA2DDC17D71FBD2DBE2DBF2D5C17D31767
:102B8000FF30D205FF30D3050030D405D617FF3013
:102B9000D505FF30D6050030D7055D085E02031865
:102BA000D22DD32D042ED42D01300310D50DD60DEA
:102BB000D70DFF3E031DD52D0130DD025D085E06F9
:102BC0000319E32DE42DFC2D0130DC025C080739EC
:102BD000031DEB2DEC2DD42DFC2DFC2DFC2D0130F7
:102BE0000310D40CD30CD20CFF3E031DF02D01308A
:102BF000D8005808DE07FC2D5E085D06031D012E77
:102C0000022EEF2D3B2E3B2E5E085D020318092E8F
:102C10000A2E3B2E0B2E01300310D20DD30DD40DF6
:102C2000FF3E031D0C2E0130DE025D085E06031917
:102C30001A2E1B2E332E0130DC025C080739031DCF
:102C4000222E232E0B2E332E332E332E0130031043
:102C5000D70CD60CD50CFF3E031D272E0130D80013
:102C60005808DD07332E5E085D06031D382E392E09
:102C7000262E3B2E3B2EDC1F3E2E3F2E502EFF30AD
:102C8000D206FF30D306FF30D4060130D207003021
:102C900003180130D307003003180130D407502E39
:102CA0005C1F532E542E652EFF30D506FF30D606FE
:102CB000FF30D7060130D507003003180130D607A2
:102CC000003003180130D707652EDC015208D50704
:102CD000530803110318530A03196F2ED60754081B
:102CE00003110318540A0319762ED707D71F792E1C
:102CF0007A2E8E2EFF30D506FF30D606FF30D7064F
:102D00000130D507003003180130D6070030031812
:102D10000130D707DC010314DC0D8E2E5508A0000E
:102D20005608A1005708A2005E08D8005808A30062
:102D30005C08D9005908A4000A168A1150220A1604
:102D40008A11831203132008D2002108D30022081D
:102D5000D400AA2E080020308400831300088312B8
:102D60000313A600840A0008A700840A0008A8002C
:102D7000840A0008A9000310280D290DAA002A08BA
:102D8000B300B308031DC52EC62ED02E0030A300FD
:102D90000030A2000030A1000030A000FF2FFF2F64
:102DA000233084000008A600840A0008A700840AD3
:102DB0000008A800840A0008A9000310280D290DA6
:102DC000AA002A08B200B208031DE72EE82EF22E50
:102DD0000030A3000030A2000030A1000030A000AD
:102DE000FF2FFF2F2030840000308004840A003041
:102DF0008004840A80308004840A003080042030FB
:102E00008400FF308005840AFF308005840AFF308B
:102E10008005840A0030800523308400003080045F
:102E2000840A00308004840A80308004840A0030E0
:102E3000800423308400FF308005840AFF30800541
:102E4000840AFF308005840A003080050030B1001C
:102E50000030B0000030AF000030AE007F30B30271
:102E6000A0303207A6002608B3022030A6002608AC
:102E7000B2003A2F0130A6000310AE0DAF0DB00D19
:102E8000B10DA60B3C2F233084000008A600840A55
:102E90000008A700840A0008A800840A0008A90006
:102EA000203084000008AA00840A0008AB00840ACD
:102EB0000008AC00840A0008AD0029082D02031D9B
:102EC0006B2F28082C02031D6B2F27082B02031DD4
:102ED0006B2F26082A02031C6E2F6F2F922F233090
:102EE00084000008A600840A0008A700840A0008DD
:102EF000A800840A0008A900203084002608800267
:102F0000840A2708031C270F8002840A2808031C50
:102F1000280F8002840A2908031C290A8002033032
:102F200084022E142030840001300310800D840AA6
:102F3000800D840A800D840A800D84038403840339
:102F4000FF3E031D952F0130B202031DA82FA92FAC
:102F50003A2FB31FAC2FAD2FD22F3308803A9F3EAC
:102F60000318B32FB42FBF2F0030A3000030A200EE
:102F70000030A1000030A000FF2FFF2FBF2F013035
:102F80000310B10CB00CAF0CAE0CFF3E031DC02FF4
:102F90000130A6002608B307031DCF2FD02FBF2F67
:102FA000F62FF62F20303302031CD72FD82FEF2F08
:102FB0000030A3000030A2000030A1000030A000CB
:102FC000FF2FFF2FEF2F0130A6000310AE0DAF0D26
:102FD000B00DB10DA60BE52F0130B302EF2FB308F2
:102FE000031DF32FF42FE32FF62FF62F3108A30044
:102FF0003008A2002F08A1002E08A000FF2F080013
:10300000FF3FFF3FFF3FFF3FFF3FFF3FFF3FFF3FD0
:10301000FF3FFF3FFF3FFF3FFF3FFF3FFF3FFF3FC0
:10302000FF3FFF3FFF3FFF3FFF3FFF3FFF3FFF3FB0
:10303000FF3FFF3FFF3FFF3FFF3FFF3FFF3FFF3FA0
:103D6000FF3FFF3F83120313A000B62E0C1EB92E97
:103D7000BA2EB62EBB2E200899000800831203131A
:103D8000B300B201331CC52EC62ECB2E3008B100B5
:103D90003108B207CB2E0310B00D0310B30CB308DB
:103DA000031DD32ED42EC22ED52E3208D72E0800B6
:103DB000831203132808A0002908A100A2018E3055
:103DC000AB002B08A300A4010A168A1150220A1680
:103DD0008A15831203132008A8002108A9002208CD
:103DE000AA00F22E0800F701F801F901FA01FB011F
:103DF000FC0183160313C001C101C201C301C40148
:103E0000C501C601C701C801C901CA01CB01CC0166
:103E1000CD01CE0183010A128A15702A8312031381
:103E2000A401A501132F201C162F172F1D2F2208C8
:103E3000A4070318A50A2308A50701300310A20D43
:103E4000A30DFF3E031D1E2F01300310A10CA00C7B
:103E5000FF3E031D252F21082004031D302F312F85
:103E6000132F322F2508A101A1072408A001A007C4
:103E7000392F080083120313310830042F042E0455
:103E80000319432F442F8E2FB7010314B70D562F5C
:103E90000130B6000310AE0DAF0DB00DB10DB60B75
:103EA0004A2F0130B6003608B707562FB11F592FD9
:103EB0005A2F482F5C2F5C2F31083502031D6A2FC3
:103EC00030083402031D6A2F2F083302031D6A2FA6
:103ED0002E083202031C6D2F6E2F7D2F2E08B2028A
:103EE0002F08031C2F0FB3023008031C300FB4023D
:103EF0003108031C310FB5027D2F01300310B10CC6
:103F0000B00CAF0CAE0CFF3E031D7E2F0130B7028C
:103F1000031D8B2F8C2F5C2F8E2F8E2F3508B10019
:103F20003408B0003308AF003208AE00972F080005
:103F300083120313A601A31F9E2F9F2FA82FA20950
:103F4000A309A20A0319A30AA6010314A60DA82F08
:103F5000A11FAB2FAC2FB22FA009A109A00A0319F2
:103F6000A10AB22F210820040319B72FB82FEE2F72
:103F7000A5010314A50DC82F01300310A00DA10D3C
:103F8000FF3E031DBD2F0130A4002408A507C82F44
:103F9000A11FCB2FCC2FBC2FCE2FCE2F2108230239
:103FA000031DD42F20082202031CD72FD82FDF2F68
:103FB0002008A2022108031CA303A302DF2F013063
:103FC0000310A10CA00CFF3E031DE02F0130A50241
:103FD000031DEB2FEC2FCE2FEE2FEE2F2608031D07
:103FE000F22FF82FA209A309A20A0319A30AF82F96
:103FF0002308A101A1072208A001A007FF2F0800A4
:10420000FF00FF00FF00FF00FF00FF00FF00FF00B6
:10421000FF00FF00FF00FF00FF00FF00FF00FF00A6
:10422000FF00FF00FF00FF00FF00FF00FF00FF0096
:10423000FF00FF00FF00FF00FF00FF00FF00FF0086
:10424000FF00FF00FF00FF00FF00FF00FF00FF0076
:10425000FF00FF00FF00FF00FF00FF00FF00FF0066
:10426000FF00FF00FF00FF00FF00FF00FF00FF0056
:10427000FF00FF00FF00FF00FF00FF00FF00FF0046
:10428000FF00FF00FF00FF00FF00FF00FF00FF0036
:10429000FF00FF00FF00FF00FF00FF00FF00FF0026
:1042A000FF00FF00FF00FF00FF00FF00FF00FF0016
:1042B000FF00FF00FF00FF00FF00FF00FF00FF0006
:1042C000FF00FF00FF00FF00FF00FF00FF00FF00F6
:1042D000FF00FF00FF00FF00FF00FF00FF00FF00E6
:1042E000FF00FF00FF00FF00FF00FF00FF00FF00D6
:1042F000FF00FF00FF00FF00FF00FF00FF00FF00C6
:10430000FF00FF00FF00FF00FF00FF00FF00FF00B5
:10431000FF00FF00FF00FF00FF00FF00FF00FF00A5
:10432000FF00FF00FF00FF00FF00FF00FF00FF0095
:10433000FF00FF00FF00FF00FF00FF00FF00FF0085
:10434000FF00FF00FF00FF00FF00FF00FF00FF0075
:10435000FF00FF00FF00FF00FF00FF00FF00FF0065
:10436000FF00FF00FF00FF00FF00FF00FF00FF0055
:10437000FF00FF00FF00FF00FF00FF00FF00FF0045
:10438000FF00FF00FF00FF00FF00FF00FF00FF0035
:10439000FF00FF00FF00FF00FF00FF00FF00FF0025
:1043A000FF00FF00FF00FF00FF00FF00FF00FF0015
:1043B000FF00FF00FF00FF00FF00FF00FF00FF0005
:1043C000FF00FF00FF00FF00FF00FF00FF00FF00F5
:1043D000FF00FF00FF00FF00FF00FF00FF00FF00E5
:1043E000FF00FF00FF00FF00FF00FF00FF00FF00D5
:1043F000FF00FF00FF00FF00FF00FF00FF00FF00C5
:02400E003AFF77
:08400000FF3FFF3FFF3FFF3FC0
:00000001FF
